:100000000C9463000C948B000C948B000C948B006C
:100010000C948B000C948B000C948B000C948B0034
:100020000C948B000C948B000C948B000C948B0024
:100030000C948B000C948B000C948B000C948B0014
:100040000C9429020C948B000C9499020C9473026A
:100050000C948B000C948B000C948B000C948B00F4
:100060000C948B000C948B000000000024002700EF
:100070002A000000000023002600290000000000E4
:10008000250028002B0004040404040404040202D4
:100090000202020203030303030301020408102007
:1000A0004080010204081020010204081020000012
:1000B0000008000201000003040700000000000027
:1000C0000000CB02530511241FBECFEFD8E0DEBFE6
:1000D000CDBF21E0A4E4B1E001C01D92AD3FB20765
:1000E000E1F711E0A0E0B1E0E2E4FFE002C005903A
:1000F0000D92A434B107D9F710E0C2E6D0E004C0F5
:100100002197FE010E949305C136D107C9F70E94CD
:100110003F030C9494070C940000833081F028F482
:10012000813099F08230A9F008958730A9F08830A5
:10013000C9F08430B1F4809180008F7D03C080913C
:1001400080008F7780938000089584B58F7784BD79
:10015000089584B58F7DFBCF8091B0008F77809319
:10016000B00008958091B0008F7DF9CF1F93CF9399
:10017000DF93E7EBF0E09491E3EAF0E0D491EFE86D
:10018000F0E0C491CC23B9F0182F992319F0892FEE
:100190000E948D00EC2FF0E0EE0FFF1FE458FF4FA0
:1001A000A591B4918FB7F894EC91111108C0D09536
:1001B000DE23DC938FBFDF91CF911F910895DE2B5B
:1001C000F8CFAF92BF92CF92DF92EF92FF920F9350
:1001D0001F93CF93DF936C017B018B01040F151FDD
:1001E000EB015E01AE18BF08C017D10759F0699145
:1001F000D601ED91FC910190F081E02DC6010995A9
:10020000892B79F7C501DF91CF911F910F91FF9055
:10021000EF90DF90CF90BF90AF900895FC01538D89
:10022000448D252F30E0842F90E0821B930B5417D0
:1002300010F0CF96089501970895FC01918D828D5D
:10024000981761F0A28DAE0FBF2FB11D5D968C91F6
:10025000928D9F5F9F73928F90E008958FEF9FEF35
:100260000895FC01918D828D981731F0828DE80FF1
:10027000F11D858D90E008958FEF9FEF0895FC01AB
:10028000918D228D892F90E0805C9F4F821B910978
:100290008F739927089586E591E00E943F0121E040
:1002A000892B09F420E0822F089580E090E0892BCB
:1002B00029F00E944B0181110C9400000895FC016B
:1002C000A48DA80FB92FB11DA35ABF4F2C91848DB7
:1002D00090E001968F739927848FA689B7892C9314
:1002E000A089B1898C91837080648C93938D848D67
:1002F000981306C00288F389E02D80818F7D80836A
:100300000895EF92FF920F931F93CF93DF93EC0129
:1003100081E0888F9B8D8C8D98131AC0E889F989AC
:10032000808185FF15C09FB7F894EE89FF896083AF
:10033000E889F98980818370806480839FBF81E030
:1003400090E0DF91CF911F910F91FF90EF90089572
:10035000F62E0B8D10E00F5F1F4F0F731127E02E4D
:100360008C8D8E110CC00FB607FCFACFE889F98985
:10037000808185FFF5CFCE010E945F01F1CFEB8D2B
:10038000EC0FFD2FF11DE35AFF4FF0829FB7F89459
:100390000B8FEA89FB8980818062CFCFCF93DF9377
:1003A000EC01888D8823B9F0AA89BB89E889F9898D
:1003B0008C9185FD03C0808186FD0DC00FB607FCC2
:1003C000F7CF8C9185FFF2CF808185FFEDCFCE01F5
:1003D0000E945F01E9CFDF91CF910895FC01019068
:1003E0000020E9F73197AF01481B590BBC0186E5A6
:1003F00091E00C94E100CF93DF93EC018091F30145
:100400009091F401009759F02091F5013091F60197
:100410002C173D0720F081E0DF91CF910895BE01B8
:100420006F5F7F4F0E94BE06009789F09093F401A2
:100430008093F301D093F601C093F5012091F70169
:100440003091F801232B39F7FC011082E4CF80E0D2
:10045000E3CF1F920F920FB60F9211242F933F9369
:100460008F939F93AF93BF938091520190915301CB
:10047000A0915401B09155013091510123E0230F17
:100480002D3758F50196A11DB11D20935101809380
:10049000520190935301A0935401B0935501809160
:1004A0004D0190914E01A0914F01B09150010196E4
:1004B000A11DB11D80934D0190934E01A0934F015A
:1004C000B0935001BF91AF919F918F913F912F9128
:1004D0000F900FBE0F901F90189526E8230F0296DD
:1004E000A11DB11DD2CF1F920F920FB60F921124F2
:1004F0002F933F934F935F936F937F938F939F932C
:10050000AF93BF93EF93FF9386E591E00E945F0165
:10051000FF91EF91BF91AF919F918F917F916F91DB
:100520005F914F913F912F910F900FBE0F901F90B1
:1005300018951F920F920FB60F9211242F938F933D
:100540009F93EF93FF93E0916601F09167018081A3
:10055000E0916C01F0916D0182FD1BC09081809152
:100560006F018F5F8F7320917001821741F0E091CE
:100570006F01F0E0EA5AFE4F958F80936F01FF9173
:10058000EF919F918F912F910F900FBE0F901F9021
:1005900018958081F4CF109259011092580188EE7D
:1005A00093E0A0E0B0E080935A0190935B01A093A8
:1005B0005C01B0935D018EE091E0909357018093D0
:1005C000560185EC90E0909363018093620184EC86
:1005D00090E0909365018093640180EC90E09093AB
:1005E00067018093660181EC90E0909369018093AC
:1005F000680182EC90E090936B0180936A0186EC35
:1006000090E090936D0180936C0110926F011092B5
:10061000700110927101109272011092F401109207
:10062000F3011092F6011092F5011092F801109268
:10063000F70190E080E00E94FB012091F3013091EE
:10064000F401811113C02115310519F0C9010E946F
:1006500035061092F4011092F3011092F8011092F5
:10066000F7011092F6011092F50108951092F80129
:100670001092F70162E471E0C9010C948D07CF93E9
:10068000DF9300D0CDB7DEB7789484B5826084BDA7
:1006900084B5816084BD85B5826085BD85B5816086
:1006A00085BD80916E00816080936E001092810004
:1006B00080918100826080938100809181008160BF
:1006C0008093810080918000816080938000809180
:1006D000B10084608093B1008091B000816080930C
:1006E000B00080917A00846080937A0080917A00D3
:1006F000826080937A0080917A00816080937A0092
:1007000080917A00806880937A001092C1000CE991
:1007100010E0F801249158E8E52E50E0F52EF7019D
:1007200084918823C9F090E0880F991FFC01E85953
:10073000FF4FA591B491FC01E458FF4F45915491AE
:100740009FB7F8943C91822F809583238C93FA0174
:100750008081282B20839FBFE3EAF0E02491EFE81B
:10076000F0E08491882399F090E0880F991FFC01B4
:10077000E859FF4FA591B491FC01E458FF4F8591D2
:1007800094918FB7F894EC91E22BEC938FBF80E0BB
:100790000E94B600E0916601F091670182E08083DB
:1007A000E0916201F09163011082E0916401F091A7
:1007B000650180E1808310926E01E0916A01F09101
:1007C0006B0186E08083E0916801F091690180818E
:1007D00080618083E0916801F09169018081886087
:1007E0008083E0916801F091690180818068808355
:1007F000E0916801F091690180818F7D808390EBA9
:10080000C92E90E0D92E20E0A22E20E0B22E77242F
:10081000739486E591E00E943F01181619060CF0CA
:10082000A1C086E591E00E941D018A3009F072C0E6
:100830008091F7019091F801892B99F08090F30154
:100840009090F40160E271E0C4010E948407892B5A
:1008500039F580914401811123C086E291E00E9424
:10086000EE0190E080E00E94FB012091F3013091C5
:10087000F401811145C02115310519F0C9010E940B
:1008800035061092F4011092F3011092F8011092C3
:10089000F7011092F6011092F50110924401B9CFC0
:1008A00066E371E0C4010E948407892BC1F42FB76D
:1008B000F8948091520190915301A0915401B0910C
:1008C00055012FBF88589F4FAF4FBF4F80934501B1
:1008D00090934601A0934701B0934801C2CF6CE3C7
:1008E00071E0C4010E948407892B09F0BACF1092ED
:1008F0004501109246011092470110924801B1CF74
:100900001092F8011092F70162E471E0C9010E94AF
:100910008D07C3CF8D3019F4709244017ACF89834B
:100920001A828090F7019090F801FFEF8F1A9F0ACA
:10093000C4010E94FB01882309F46BCF2091F301CD
:100940003091F4018091F7019091F801BE016F5F41
:100950007F4F820F931F0E948D079092F801809223
:10096000F70157CFF6018491F8019490F701849034
:10097000882009F490C081110E948D00E82DF0E0DC
:10098000EE0FFF1FEE58FF4FA591B4918C91982266
:1009900031E020E009F430E0832F922F2091020112
:1009A0003091030128173907B9F02FB7F894409117
:1009B00052015091530160915401709155012FBF24
:1009C0004093490150934A0160934B0170934C014D
:1009D00090930301809302012FB7F8944091520144
:1009E0005091530160915401709155012FBF209097
:1009F000490130904A0140904B0150904C014219FE
:100A00005309640975094E31510561057105A8F056
:100A100020910001309101012817390771F090935E
:100A2000010180930001892BD9F18CE191E00E94B2
:100A3000EE0180E491E00E94EE018091000190912E
:100A400001012FB7F89440915201509153016091E8
:100A50005401709155012FBF2090450130904601FF
:100A60004090470150904801892BC1F081E0421528
:100A700053056405750508F080E00E94B600A114D6
:100A8000B10409F4C6CE0E944B01882309F4C1CEFB
:100A90000E940000BECE90E080E080CF81E0EDCFEC
:100AA0008EE191E0C4CF8091F3019091F401009721
:100AB00011F00C94350608952F923F924F925F9259
:100AC0006F927F928F929F92AF92BF92CF92DF925E
:100AD000EF92FF920F931F93CF93DF93CDB7DEB7C3
:100AE000CA1BDB0B0FB6F894DEBF0FBECDBF099457
:100AF0002A88398848885F846E847D848C849B84AE
:100B0000AA84B984C884DF80EE80FD800C811B81BB
:100B1000AA81B981CE0FD11D0FB6F894DEBF0FBEEA
:100B2000CDBFED010895EE0FFF1F0590F491E02D6C
:100B300009940F931F93CF93DF938230910510F4A4
:100B400082E090E0E091FB01F091FC0130E020E0D8
:100B5000B0E0A0E0309799F42115310509F44AC0BE
:100B6000281B390B24303105D8F58A819B8161150A
:100B7000710589F1FB0193838283FE0111C04081DD
:100B800051810281138148175907E0F0481759072E
:100B900099F4109761F012960C93129713961C9388
:100BA0003296CF01DF91CF911F910F91089500935D
:100BB000FB011093FC01F4CF2115310551F04217D0
:100BC000530738F0A901DB019A01BD01DF01F801EB
:100BD000C1CFEF01F9CF9093FC018093FB01CDCF02
:100BE000FE01E20FF31F8193919322503109398363
:100BF0002883D7CF2091F9013091FA01232B41F4BA
:100C000020910601309107013093FA012093F901F8
:100C100020910401309105012115310541F42DB7D2
:100C20003EB74091080150910901241B350BE0911A
:100C3000F901F091FA01E217F307A0F42E1B3F0B24
:100C40002817390778F0AC014E5F5F4F241735073E
:100C500048F04E0F5F1F5093FA014093F9018193C2
:100C600091939FCFF0E0E0E09CCFCF93DF9300978C
:100C7000E9F0FC01329713821282A091FB01B0913E
:100C8000FC01ED0130E020E01097A1F420813181DA
:100C9000820F931F2091F9013091FA01281739072B
:100CA00009F061C0F093FA01E093F901DF91CF916F
:100CB0000895EA01CE17DF07E8F54A815B819E01BE
:100CC00041155105B1F7E901FB83EA834991599137
:100CD000C40FD51FEC17FD0761F480819181029646
:100CE000840F951FE90199838883828193819B8377
:100CF0008A83F0E0E0E012968D919C911397009723
:100D0000B9F52D913C911197CD010296820F931F59
:100D10002091F9013091FA012817390739F63097F7
:100D200051F51092FC011092FB01B093FA01A093CF
:100D3000F901BCCFD383C28340815181840F951FB9
:100D4000C817D90761F44E5F5F4F88819981480FBA
:100D5000591F518340838A819B819383828321150C
:100D6000310509F0B0CFF093FC01E093FB019ECF79
:100D7000FD01DC01C0CF13821282D7CFB0E0A0E02A
:100D8000E4ECF6E00C945E058C01009751F4CB0185
:100D90000E9499058C01C801CDB7DEB7E0E10C9443
:100DA0007A05FC01E60FF71F9C0122503109E2177A
:100DB000F30708F49DC0D901CD91DC911197C617B6
:100DC000D70798F0C530D10530F3CE0104978617C8
:100DD000970708F3C61BD70B2297C193D1936D9346
:100DE0007C93CF010E943506D6CF5B01AC1ABD0AB9
:100DF0004C018C0E9D1EA091FB01B091FC01512C69
:100E0000412CF12CE12C109731F58091F901909152
:100E1000FA018815990509F05CC04616570608F0D6
:100E200058C08091040190910501009741F48DB75D
:100E30009EB74091080150910901841B950BE8175A
:100E4000F90708F055C0F093FA01E093F901F901B0
:100E500071836083A0CF8D919C91119712966C90B5
:100E6000129713967C901397A815B90559F56C0144
:100E700042E0C40ED11CCA14DB0420F1AC014A19B3
:100E80005B09DA011296159780F0628273825183B2
:100E90004083D9016D937C93E114F10471F0D70183
:100EA0001396FC93EE93129776CF22968C0F9D1F8C
:100EB000F90191838083F301EFCFF093FC01E0937C
:100EC000FB0169CF4816590608F42C017D01D301B6
:100ED0009ACFCB010E9499057C01009749F0AE01A1
:100EE000B8010E947B07C8010E943506870153CFD5
:100EF00010E000E050CFFB01DC0102C001900D9238
:100F000041505040D8F70895FB01DC018D910190CC
:100F100080190110D9F3990B0895FB01DC010190B0
:100F20000D920020E1F7089510E0C2E6D0E004C081
:100F3000FE010E9493052196C336D107C9F7F894A4
:020F4000FFCFE1
:100F4200010001000000FD0180000000000081019D
:100F5200E1000E01CE013F011D013101520050009E
:100F620048454C4C4F0048414E42454F4E5F554E0E
:100F72004F5F56310A00464C415348004F464600E7
:040F82000D0A000054
:00000001FF
